:100000000C9434000C9451000C9451000C94510049
:100010000C9451000C9451000C9451000C9451001C
:100020000C9451000C9451000C9451000C9451000C
:100030000C9451000C9451000C9451000C945100FC
:100040000C9451000C9451000C94CA020C94510071
:100050000C9451000C943D020C9451000C945100EE
:100060000C9451000C94510011241FBECFEFD8E026
:10007000DEBFCDBF11E0A0E0B1E0EEEBF7E002C0E3
:1000800005900D92A230B107D9F721E0A2E0B1E0CE
:1000900001C01D92A431B207E1F70E94B6000C9492
:1000A000DD030C940000ECE7F0E08081887F808322
:1000B000AEE7B0E08C9181608C938C9182608C93E0
:1000C0008C9184608C938C9188608C938081806209
:1000D000808380818064808380818F778083EAE75A
:1000E000F0E0808188608083808187608083808168
:1000F000806880830895F999FECF92BD81BD60BD6F
:100100008FB384608FBB8FB382608FBB0895F999E2
:10011000FECF92BD81BD8FB381608FBB80B590E073
:10012000089584B18E6084B917B88AB188678AB996
:1001300084B18E7084B981E185B988E090E00E9435
:10014000FF0260E082E00E94DE0260E081E00E9447
:10015000DE028FE295E70E9426030E9453000E9470
:1001600066038BB180628BB9789408950E949100E8
:10017000349B17C08FE39CE90197F1F700C00000A2
:10018000809105018F5F8093050109C09FEF26E7ED
:1001900081E0915020408040E1F700C00000349998
:1001A000F5CF80910501823041F0833051F08130EC
:1001B00009F047C11092030144C18BB180618BB932
:1001C00040C18BB180648BB918991AC09FEF29EF99
:1001D00080E0915020408040E1F700C00000809115
:1001E00004018F5F8093040109C09FEF26E781E03F
:1001F000915020408040E1F700C00000189BF5CFEF
:10020000359B1AC080910B018F5F80930B018FE3A8
:100210009CE90197F1F700C0000081E080930301A1
:1002200009C09FEF26E781E0915020408040E1F730
:1002300000C000003599F5CF809104018130E9F4C8
:1002400060910A0170E080E090E00E947B00609184
:10025000090170E081E090E00E947B00609108015C
:1002600070E082E090E00E947B006091070170E006
:1002700083E090E00E947B005EC08230E9F46091F0
:100280000A0170E084E090E00E947B006091090127
:1002900070E085E090E00E947B006091080170E0D2
:1002A00086E090E00E947B006091070170E087E0AB
:1002B00090E00E947B003FC08330E9F460910A0126
:1002C00070E088E090E00E947B006091090170E09E
:1002D00089E090E00E947B006091080170E08AE074
:1002E00090E00E947B006091070170E08BE090E05D
:1002F0000E947B0020C08430F1F4109204016091D0
:100300000A0170E08CE090E00E947B00609109019E
:1003100070E08DE090E00E947B006091080170E049
:100320008EE090E00E947B006091070170E08FE01A
:1003300090E00E947B0080910B018130E1F480E02D
:1003400090E00E94870061E00E94800381E090E0DD
:100350000E94870061E00E94370382E090E00E94E3
:10036000870062E00E94370383E090E00E948700EC
:1003700062E00E94800380910B018230E1F484E00E
:1003800090E00E94870061E00E94800385E090E099
:100390000E94870061E00E94370386E090E00E949F
:1003A000870062E00E94370387E090E00E948700A8
:1003B00062E00E94800380910B018330E1F488E0C9
:1003C00090E00E94870061E00E94800389E090E055
:1003D0000E94870061E00E9437038AE090E00E945B
:1003E000870062E00E9437038BE090E00E94870064
:1003F00062E00E94800380910B018430E1F48CE084
:1004000090E00E94870061E00E9480038DE090E010
:100410000E94870061E00E9437038EE090E00E9416
:10042000870062E00E9437038FE090E00E9487001F
:1004300062E00E94800380910B01853011F41092DC
:100440000B0180910501843029F48BB180728BB946
:100450001092050180910301811105C0EAE7F0E0E7
:100460008081806480839FEF29EF80E0915020405D
:100470008040E1F700C000007BCE1F920F920FB6C4
:100480000F9211242F933F934F935F936F937F931A
:100490008F939F93AF93BF93CF93DF93EF93FF938C
:1004A00080910301811163C0809106018130D1F0F8
:1004B00030F0823069F1833009F440C053C0ECE77A
:1004C000F0E08081887F808381E080930601C9E726
:1004D000D0E0888162E090E00E94370388818093B9
:1004E0000A0140C0ECE7F0E08081887F8083808152
:1004F0008160808382E080930601C9E7D0E0888133
:1005000061E090E00E9437038881809309012AC04E
:10051000ECE7F0E08081887F808380818260808347
:1005200083E080930601C9E7D0E0888161E090E034
:100530000E94800388818093080114C0ECE7F0E0FA
:100540008081887F80838081836080831092060110
:10055000C9E7D0E0888162E090E00E948003888152
:1005600080930701EAE7F0E0808180618083FF915A
:10057000EF91DF91CF91BF91AF919F918F917F913B
:100580006F915F914F913F912F910F900FBE0F9000
:100590001F9018951F920F920FB60F9211248F93F0
:1005A0008091C600809302018091C00085FFFCCF3E
:1005B0008F910F900FBE0F901F901895813019F0FA
:1005C000823079F00895613031F4E0E8F0E0808124
:1005D000806C80830895E0E8F0E08081806880830B
:1005E0000895613031F4E0E8F0E080818063808339
:1005F0000895E0E8F0E080818062808308951092A1
:100600008000109281008830910521F0811594407E
:1006100039F00BC0E1E8F0E080818260808305C0A2
:10062000E1E8F0E0808185608083E0E8F0E08081AF
:1006300082608083E1E8F0E080818861808381E0EE
:1006400090E09093010180930001089520910001B2
:10065000309101012130310529F490938700809376
:1006600086000895109201011092000108956130F2
:1006700019F06230B1F0089590930F0180930E014C
:1006800082959295907F9827807F982788519C4FDC
:1006900090930D0180930C019093890080938800C2
:1006A000089590930F0180930E0182959295907F0B
:1006B0009827807F982788519C4F90930D018093B5
:1006C0000C0190938B0080938A000895E0EBF0E09A
:1006D0001082A1EBB0E01C928081806880838081D1
:1006E0008062808380818B6080838C91877F8C93F4
:1006F0008C9187608C9387E08093B30018BC089539
:10070000613019F06230C9F008959093130180931D
:10071000120145E1489F9001499F300D1124C90104
:100720006FEF70E00E94B503695F7F4F7093110116
:10073000609310016093B300089590931301809328
:1007400012014FE1489F9001499F300D1124C901CA
:100750006FEF70E00E94B503695F7F4F70931101E6
:10076000609310016093B400089597FB072E16F470
:10077000009407D077FD09D00E94C90307FC05D07B
:100780003EF4909581959F4F0895709561957F4FA8
:100790000895AA1BBB1B51E107C0AA1FBB1FA617C8
:1007A000B70710F0A61BB70B881F991F5A95A9F71A
:0E07B00080959095BC01CD010895F894FFCF7F
:0207BE00010038
:00000001FF
